:04000000CAEF3FF014
:107F94000001CDEF3FF0949E9392929A898A400E0D
:107FA400C76E200EC66E040E016E3E0EE82EFED77E
:107FB400012EFCD7899A060EC96EC7A0FED7898AFE
:107FC400C80E00D0E82EFDD7899A020EC96EC7A04C
:107FD400FED7010EC96EC7A0FED7AA0EC96EC7A0F0
:107FE400FED7898A020E026E450E016EAA0EE82E95
:0C7FF400FED7012EFCD7022EFAD7E6D7EC
:020000040020DA
:08000000FFFFFFFFFFFFFFFF00
:020000040030CA
:0E00000000091F1EFF8185FF0FC00FE00F409B
:00000001FF
